:0300000002030BED
:0C030B00787FE4F6D8FD75814A020352A9
:09072000524541440053455400C8
:10000E000121000128000122000123000127000226
:03001E00240000BB
:1002550012060F120687E52164017028C2ACFF1251
:1002650005981200037F011205981200037F021200
:1002750005981200037F03120598120003E4F52187
:10028500D2AC8034E5216402702EE527B404FBE48A
:10029500F527F52874292528F8E62430FDE433FCF4
:1002A500AF281205C87F0A7E0012069E0528E5289C
:1002B500C3940440DFE4F521C3E52594E8E52494DF
:1002C500034093E522D39400408C742D2522F8E455
:1002D500F6782D7C00FD7BFF7A077920120238EF36
:1002E50070057521018015782D7C007D007BFF7AD6
:1002F500077925120238EF7003752102E4F522F51E
:0603050024F52502025B55
:030023000203973E
:10039700C0E0C0F0C083C082C0D075D000C000C02C
:1003A70001C002C003C004C005C006C007309842A0
:1003B700C298859926E521B4021074292527F8A645
:1003C70099AF9912000305278020E526640D601A6E
:1003D700E526640A6014E5216401600EAF26120069
:1003E70003742D2522F8A6260522752400752500FD
:1003F70080053099FDC299D007D006D005D004D02A
:1004070003D002D001D000D0D0D082D083D0F0D09A
:02041700E032D1
:03000B000206DE0C
:1006DE00C0E0758CFC758A180525E5257002052489
:0306EE00D0E03227
:1005C8008F488C498D4A1207297FA01205661207A9
:1005D80000AF48120566120700AF4A1205661207F7
:0405E8000002073BCB
:020598008F488A
:10059A001207297FA0120566120700AF48120566E6
:1005AA001207001207297FA1120566120700120618
:0D05BA002E8F49D20012073212073BAF49C5
:0105C7002211
:10069E00EF1FAC0670011E4C600B007D027CC7DCA8
:0506AE00FEDDFC80EB05
:0106B3002224
:09072900D2A1D2A0C2A0C2A122FB
:07073B00C2A0D2A1D2A0224E
:02056600AD07DF
:10056800E4FC74807E00A804088006CEA2E713CEBF
:1005780013D8F8FFEDFBE4FEEF5BFF6004D2A08028
:0F05880006EF4E7002C2A0D2A1C2A10CBC08D3D4
:010597002241
:10062E00E4FFD2A0FED2A130A00D7480A8060880EF
:0D063E0002C313D8FC4207C2A10EBE08E89B
:01064B00228C
:09073200A20092A0D2A1C2A122F2
:0B070000D2A0D2A1A2A0E433FFC2A14E
:01070B0022CB
:10041900E4F51EF51F20B0167F14FE12069E30B0BB
:10042900FD7F147E0012069E751E00751F0120B106
:10043900177F147E0012069E30B1FD7F147E0012D4
:10044900069E751E00751F0220B2177F147E0012CA
:10045900069E30B2FD7F147E0012069E751E007541
:100469001F0320B3177F147E0012069E30B3FD7F51
:0E047900147E0012069E751E00751F04AF1F34
:010487002252
:0606F100C2A58F80D2A714
:0806F7007F027EEFDEFEDFFC56
:0106FF0022D8
:0A070C00C2A61206F1C2A70206F70A
:10064C00CFCDCFCECCCE1200657C007D0A120065DA
:04065C00ED2430FF5A
:0A066000D2A61206F1C2A70206F7A7
:1006B400AE07BE0104ED148006BE0209ED243F44DA
:0606C40080FF12070C226A
:1006CA007F3812070C7F0C12070C7F0612070C7F6B
:0406DA000102070C06
:0A071600AC031206B4AF0402066043
:0605EC008B458A46894799
:1005F2001206B4E4FDAB45AA46A9478D8275830075
:0C060200120026FF60061206600D80E961
:01060E0022C9
:0C0533007F0AEA24FFFDE434FFFC7E0098
:08053F008E418F428C438D4474
:100547007F017E00E4FBEBC39544E5436480F874C8
:0E0557008098500AAC41AD421200530B80E870
:010565002273
:04066A008A118B1254
:10066E001206B4AA13EAD39400400D120533AC114E
:08067E00AD1212064C1A80EDCA
:010686002251
:100488001206B4C3EA64809480400B7F2B12066086
:100498008A0D8B0E800E7F2D120660C3E49BF50E2D
:1004A800E49AF50DAA0CEAD39400400D120533AC7A
:0904B8000DAD0E12064C1A80ED88
:0104C1002218
:0404C2008A168B17F4
:1004C6001206B4AA18EAD3940040297F1012053503
:1004D600AC16AD17CFCDCFCECCCE120065EF540FF4
:1004E600FEC3940AEE5004243080022437FF12061D
:0404F600601A80D137
:0104FA0022DF
:0404FB008A1B8B1CB1
:1004FF001206B4AA1DEAD394004028EA24FFFDE4B3
:10050F0034FFFC7F027E0012053FAC1BAD1CCFCD2C
:10051F00CFCECCCE120065EF54012430FF1206600F
:03052F001A80D25D
:0105320022A6
:10060F0075985075878053890F438920D28E758DC9
:0F061F00F4758BF4C2ABC299C298D2AFD2AC22A1
:080003008F993099FDC299228A
:100687005389F0438901C28DD28C758CFC758A1809
:07069700D2A9D2AFC2B922C3
:10031700020255E493A3F8E493A34003F68001F2A5
:1003270008DFF48029E493A3F85407240CC8C333E7
:10033700C4540F4420C8834004F456800146F6DFB6
:10034700E4800B010204081020408090000EE47E38
:10035700019360BCA3FF543F30E509541FFEE493AB
:10036700A360010ECF54C025E060A840B8E493A372
:10037700FAE493A3F8E493A3C8C582C8CAC583CA9D
:10038700F0A3C8C582C8CAC583CADFE9DEE780BE55
:0100210000DE
:10002600BB010CE58229F582E5833AF583E022508F
:1000360006E92582F8E622BBFE06E92582F8E222D9
:0D004600E58229F582E5833AF583E49322F3
:10005300EF8DF0A4A8F0CF8CF0A428CE8DF0A42EC1
:02006300FE227B
:10006500BC000BBE0029EF8DF084FFADF022E4CC7F
:10007500F875F008EF2FFFEE33FEEC33FCEE9DEC48
:10008500984005FCEE9DFE0FD5F0E9E4CEFD22ED8E
:10009500F8F5F0EE8420D21CFEADF075F008EF2FD8
:1000A500FFED33FD4007985006D5F0F222C398FDC9
:0500B5000FD5F0EA2266
:1000BA00E3F5F009E208B5F06D606B80F3E3F5F063
:1000CA0009E608B5F060605E80F387F009E608B5D6
:1000DA00F054605280F487F009E208B5F0486046AF
:1000EA0080F488828C8387F009E0A3B5F038603603
:1000FA0080F488828C8387F009E493A3B5F02760A3
:10010A002580F388828C83E3F5F009E0A3B5F01625
:10011A00601480F388828C83E3F5F009E493A3B535
:10012A00F004600280F20201E5808580E7808E801B
:10013A00D2803C8015806C807E809B80B5808B80CD
:10014A00A1804F8070803A0201F189828A83ECFA99
:10015A00E493F5F0A3C8C582C8CCC583CCE493A3C5
:10016A00C8C582C8CCC583CCB5F070606E80E18901
:10017A00828A83E493F5F0A3E208B5F05E605C80BE
:10018A00F289828A83E0F5F0A3E608B5F04D604B68
:10019A0080F389828A83E0F5F0A3E208B5F03C6037
:1001AA003A80F389828A83E493F5F0A3E608B5F0EE
:1001BA002A602880F2805389828A83ECFAE493F5D4
:1001CA00F0A3C8C582C8CCC583CCE0A3C8C582C881
:1001DA00CCC583CCB5F004600280E27FFFB5F002A3
:1001EA000F2240027F012289828A83ECFAE0F5F02D
:1001FA00A3C8C582C8CCC583CCE0A3C8C582C8CC75
:10020A00C583CCB5F0D560D380E389828A83ECFAC2
:10021A00E0F5F0A3C8C582C8CCC583CCE493A3C8D3
:10022A00C582C8CCC583CCB5F0B160AF80E288F096
:10023A00ED2402B4040050A3F582EB2402B40400B6
:0B024A00509923234582239001337359
:00000001FF
